:03000000020006F5
:03005F0002000399
:030003000203E80D
:20006200AF82BF01028008BF03028068020137C374808509F063F08095F0501C8508F005A2
:20008200F07401800225E0D5F0FBFFF4FE5290EE5291EF4292020137E50930E71C8508F073
:2000A20005F07401800225E0D5F0FBFF4290EFF4FE5291EF42920201378508F005F0740114
:2000C200800225E0D5F0FBFF4291EFF4FE5292EF42908061C374808509F063F08095F050C1
:2000E2001B8508F005F07401800225E0D5F0FBFFF4FE52B0EE52B1EF42B28039E50930E730
:200102001B8508F005F07401800225E0D5F0FBFF42B0EFF4FE52B1EF42B280198508F005C1
:20012200F07401800225E0D5F0FBFF42B1EFF4FE52B2EF42B0227508007509007582031230
:20014200006275080175090075820312006275080375090075820312006275080475090066
:200162007582031200622275080075090075820112006275080275090075820112006275A8
:2001820008047509007582011200627508067509007582011200622212013812016922AF40
:2001A20082E4FEFDEF75F004A4243CF582740435F0F583E493FAA3E493FBA3E493FCA3E4D1
:2001C20093FF8E0AE50A24FC4024E50A75F003A49001D6730201E20201E60201EA0201EEFF
:2001E2007E00800A7E0180067E0380027E047800C007C006C005C004C003C002C000120185
:2002020038D000D002D003D004D005D006D007E824FC401CE82890021C7380068008800AAC
:20022200800C7D00800A7D0280067D0480027D067900C007C006C005C004C003C002C001C9
:20024200C000120169D000D001D002D003D004D005D006D007B900028009B90103020313AB
:200262000203BDEA30E0558D08750901758201C007C006C005C004C003C002C001C0001231
:200282000062D000D001D002D003D004D005D0068E087509FF758203C006C005C004C00316
:2002A200C002C001C000120062D000D001D002D003D004D005D006D0070203BD8D08750914
:2002C20000758201C007C006C005C004C003C002C001C000120062D000D001D002D003D07E
:2002E20004D005D0068E08750900758203C006C005C004C003C002C001C000120062D000A6
:20030200D001D002D003D004D005D006D0070203BDEA30E0548D087509FF758201C007C06E
:2003220006C005C004C003C002C001C000120062D000D001D002D003D004D005D0068E0857
:20034200750901758203C006C005C004C003C002C001C000120062D000D001D002D003D043
:2003620004D005D006D00780528D08750900758201C007C006C005C004C003C002C001C0FC
:2003820000120062D000D001D002D003D004D005D0068E08750900758203C006C005C004C5
:2003A200C003C002C001C000120062D000D001D002D003D004D005D006D007EFC313FFEC75
:2003C20013FCEB13FBEA13FA09E924FE400302023408B8040050030201F2050A74FC250AD3
:2003E20040030201C6227F007593FF8F947591FF8F927595FF8F9675B15B8FB275B3FF8F58
:20040200B48F808F908FA075B0248FC020B51F7E00BE010050108F82C007C0061201A1D07E
:1604220006D0070E80EBBF100050E10F80DE12019A7F0080D7225C
:20043C0000FC3F00C0FFFF03F0FFFF0FFCFF873FFCFF7F3E1FE0FFF9FFFFFFF9FFFFFFF94B
:20045C00FFFFFFF9FFFFFFF91FE0FFF9FCFF3F3FFCFFC33FF0FFFF0FC0FFFF0300FC3F002E
:06003500E478FFF6D8FD9F
:200013007900E94400601B7A0090047C780175A000E493F2A308B8000205A0D9F4DAF27513
:02003300A0FF2C
:20003B007800E84400600A790175A000E4F309D8FC7800E84400600C7900900001E4F0A3C3
:04005B00D8FCD9FAFA
:0D00060075810A120438E5826003020003D0
:0404380075820022A7
:00000001FF
